:030000000201EC0E
:0C01EC00787FE4F6D8FD75812B020182BB
:1001B500003F0006005B004F0066006D007D0007F4
:1001C500007F006F0077007C0039005E00790071C8
:0201D500000028
:1001D700EF1FAC0670011E4C600A7D027CEFDCFE4F
:0401E700DDFC80ECCF
:0101EB0022F1
:0400F9008F088D09D6
:1000FD00780A7C007D007BFF7A0179B57E007F2236
:10010D001200D3E50814B40800505490012675F080
:10011D0003A4C58325F0C5837302013E020142028B
:10012D00014602014A02014E02015602015E020120
:10013D0066D2A4800ED2A48012D2A48016D2A4803E
:10014D001AC2A4D2A3D2A28016C2A4D2A3C2A280E4
:10015D000EC2A4C2A3D2A28006C2A4C2A3C2A2E5AB
:10016D000925E0240AF808E6F5807F017E001201DA
:04017D00D7E4F5804E
:01018100225B
:100182007D057F011200F97D027F021200F9E4FD74
:100192007F031200F97D017F051200F97D037F06BE
:1001A2001200F97D017F071200F97D047F08120019
:0301B200F980CD04
:10000300E709F608DFFA8046E709F208DFFA803EDF
:1000130088828C83E709F0A3DFFA8032E309F608CC
:10002300DFFA8078E309F208DFFA807088828C8334
:10003300E309F0A3DFFA806489828A83E0A3F608E8
:10004300DFFA805889828A83E0A3F208DFFA804CC2
:1000530080D280FA80C680D4806980F28033801099
:1000630080A680EA809A80A880DA80E280CA803302
:1000730089828A83ECFAE493A3C8C582C8CCC5837A
:10008300CCF0A3C8C582C8CCC583CCDFE9DEE7804A
:100093000D89828A83E493A3F608DFF9ECFAA9F0C9
:1000A300EDFB2289828A83ECFAE0A3C8C582C8CC1F
:1000B300C583CCF0A3C8C582C8CCC583CCDFEADE38
:1000C300E880DB89828A83E493A3F208DFF980CC9A
:1000D30088F0EF60010E4E60C388F0ED2402B40493
:1000E3000050B9F582EB2402B4040050AF2323453A
:0600F3008223900053730C
:00000001FF
